:020000040800F2
:100000006814002091020008AB4F0008CB410008A3
:10001000A94F0008491500084560000800000000CD
:100020000000000000000000000000004D54000827
:100030000716000800000000AD4F00084F540008EC
:10004000AB020008AB020008AB020008AB020008DC
:10005000AB020008AB020008AB020008AB020008CC
:10006000AB020008AB020008AB0200084D15000807
:1000700059150008AB020008AB020008AB020008EB
:10008000AB02000800000000AB020008AB02000851
:10009000AB020008AB020008AB020008AB0200088C
:1000A000AB020008AB020008AB020008AB0200087C
:1000B0002D55000839550008AB020008AB020008B6
:1000C000AB020008AB020008AB020008AB0200085C
:1000D000AB02000839600008AB020008AB02000860
:1000E000AB020008AB020008AB020008AB0200083C
:1000F000AB020008AB020008AB02000800000000E1
:1001000000000000AB02000800000000AB02000885
:10011000AB02000800000000AB020008AB020008C0
:10012000AB020008AB020008AB020008AB020008FB
:10013000AB0200080000000000000000AB02000855
:10014000AB020008AB020008000000000000000045
:10015000000000000000000000000000000000009F
:10016000000000000000000000000000AB020008DA
:10017000AB020008000000000000000000000000CA
:1001800000000000AB0200080000000000000000BA
:10019000000000000000000000000000000000005F
:1001A0000000000000000000AB020008AB020008E5
:1001B000AB020008AB020008AB0200080000000020
:1001C00000000000AB02000800000000000000007A
:1001D000AB020008AB02000800F002F800F049F89A
:1001E0000AA090E8000C82448344AAF10107DA4592
:1001F00001D100F03EF8AFF2090EBAE80F0013F09B
:10020000010F18BFFB1A43F0010318479478000050
:10021000B4780000103A24BF78C878C1FAD85207E1
:1002200024BF30C830C144BF04680C607047000070
:100230000023002400250026103A28BF78C1FBD8EF
:10024000520728BF30C148BF0B607047662906F0CF
:10025000D282002070471FB506F0C3FA00F0C2FB3F
:1002600004000020002105F05FFFE0601FBD10B515
:1002700010BD00F0B7FC1146FFF7EDFF05F012FFCF
:1002800000F0D5FC03B4FFF7F2FF03BC00F018FD4B
:100290000948804709480047FEE7FEE7FEE7FEE71A
:1002A000FEE7FEE7FEE7FEE7FEE7FEE70448054956
:1002B000054A064B704700001D550008D90100088B
:1002C000680B002068140020680E0020680E0020D3
:1002D00053EA020C00F069802DE9F04B4FF0000664
:1002E000002B1FBFB3FA83F503FA05F424FA05F6D1
:1002F0005E4012BF1643B2FA82F502FA05F4C5F168
:1003000020051EBF22FA05FC44EA0C04203556EAFB
:10031000044C4FEA144418BF641C4FF000084FF01F
:100320000009904271EB030C39D3002919BFB1FACF
:1003300081F701FA07F6B0FA80F700FA07F6C7F17D
:1003400020071EBF20FA07FC46EA0C062037B6FB42
:10035000F4FCA7EB0507103F07F01F0BCBF12006BD
:100360000CFA0BFB2CFA06F644BFB3460026202FEE
:10037000A4BF5E464FF0000B5BEA060C08BF4FF0CF
:10038000010B19EB0B09ABFB027C48EB0608C01B09
:1003900006FB02CC0BFB03CC71EB0C01C1E70B4657
:1003A000024641464846BDE8F08B13B54FF00000C9
:1003B0004FF00001AFF30080BDE81C407047000023
:1003C0000FB41CB5074B06AA7B44694600900598FC
:1003D00000F0EFFA0020694600F0FEFA1CBC5DF860
:1003E00014FB00000D0600002DE9F0474FF0000A55
:1003F00089460446C0F820A02046E16888470028C6
:1004000076D0252806D0D4E901219047206A401CE7
:100410002062F1E7E168204600258847C4F81CA067
:1004200006460027C4F818A02A2E09D0304605F049
:1004300032FE38B304EB8708303EC8F8186019E084
:1004400059F8041B204604EB87029161E168884754
:10045000012F064618D1E069002820DA25F0200592
:100460001DE0D8F8180000EB800006EB40003038A3
:10047000C8F818002046E1688847064605F00BFEDC
:100480000028EED1012F0AD02E2E08D12046E16897
:1004900088477F1C0646022F45F02005C4DBA06973
:1004A000002803DA404245F00105A061E80701D0C9
:1004B00025F01005B6B1A6F14100192802D8203662
:1004C00045F400654A463146204625604D46FFF713
:1004D000BDFE58B1012806D0ED1D25F0070000F142
:1004E000080989E704E005F1040985E730468AE751
:1004F000206ABDE8F08710B5431C02E010F8011B2C
:1005000071B18107FAD14FF0013202C88C1A8C43C5
:1005100014EAC211F9D0C01A0A0603D0C01E10BDD9
:10052000C01A10BD0A0401D0801E10BD0902FCD003
:10053000401E10BD4FF0000200B51346944696468B
:10054000203922BFA0E80C50A0E80C50B1F12001E6
:10055000BFF4F7AF090728BFA0E80C5048BF0CC094
:100560005DF804EB890028BF40F8042B08BF7047F2
:1005700048BF20F8022B11F0804F18BF00F8012B64
:10058000704770477047704770472DE9FF4F0C4622
:100590001E464FF0FF378BB0D2E90001DDF86080D6
:1005A0000A908A46C1F30A5505B93D46002108461E
:1005B0004FF00000BAF1000F00F4400005DA00EB44
:1005C00080004FF4400101EA50004FEA9059B9F120
:1005D000010F00DDB9460A9850EA4A000ED044F6F1
:1005E0001050A5F2FF3545432F14B8F1000F1ED06F
:1005F0007542291E1EDDC9F100021CE0B8F1010F91
:100600004FF0000001D0302103E0F24305E0215417
:10061000401CB042FBDB30460022002121540B99E4
:10062000C1F80880C1E900200FB0BDE8F08FBD1B04
:100630006D1CDEE74A4600DA694206A800F05CFA63
:1006400006AB93E8070003AB83E8070050460A991E
:1006500000F03DFB8DE80700A0F500501F3800902A
:100660000398002D0ADD42F21F014A460844002388
:1006700003A90390684600F0A6FD09E0A0F500502C
:100680004A461F38002303A90390684600F0B0FDD6
:100690008DE807000004000C03D04FF0FF30410844
:1006A00000E01046B8F1000F03D00022009215467A
:1006B0001EE0751E05D400F099F9303262556D1EAA
:1006C000F9D5B3460122084302D000227F1C04E082
:1006D0002078302801D100227F1E002A099784D07B
:1006E0001DE0112D07DA00F081F9303262556D1CE2
:1006F00050EA0102F5D1084302D00098C8B10EE0DB
:100700000021681E05E0235C625C63542254401E95
:10071000491C8142F7DBAB46A81B401E0990002014
:1007200004F80B000B98099AC0F80880C0E9002B68
:100730007AE711264FF0000857E72DE9F04F884679
:100740000446D21D22F0070191B0D1E90001CDE9A4
:100750000A0105F078FC02460B98C00F01D02D204D
:1007600007E02068810701D52B2002E0202101EA63
:10077000C000032A099001D0072A05DB0346414641
:10078000204600F079F90BE12078800601D5E06978
:1007900000E00620B8F1650F814606D0B8F1660F7B
:1007A00018D0B8F1670F70D131E00020B9F1110F06
:1007B000009001DB112301E009F101030AAA01A95C
:1007C0000CA8FFF7E2FEDDE90C70002609F1010537
:1007D000834647E001204B4600904FF000470AAAAD
:1007E00001A90CA8FFF7D1FEDDE90DB00C995D461B
:1007F000002610B909F101000D18B9EB050003D46A
:10080000C0F1FF3609F10105A5EB09002BE0B9F1B4
:10081000010F01DA4FF001090020B9F1110F00902A
:10082000484601DD112300E003460AAA01A90CA8ED
:10083000FFF7ABFEDDE90C704D46002683462078BD
:1008400000070AD4AB4500DA5D4601A8012D04DD9E
:10085000411911F8011C302907D04F4502DA17F170
:10086000040F04DA012082460FE06D1EEEE7002F30
:1008700002DCED1B3E4403E0781CA84200DD7D1C39
:10088000B81B00F1010A4FF000472078000703D49D
:10089000AA4501DB4FF0FF3A0021B7F1004F0DF1FF
:1008A00043088DF8431024D002202B23002F01DAB7
:1008B0007F422D230A21021EA0F1010000DC5FB15E
:1008C00097FBF1FC97FBF1F201FB1C7C17460CF146
:1008D000300C08F801CDEEE7A8F101000370218883
:1008E000090501D5452100E06521A0F1010800F8C6
:1008F000011C09980FA9A1EB0807FF1D00B10120F9
:10090000411901EBEA70A1693844081A401EA06140
:100910002078C00602D42046AFF30080099828B1A1
:10092000D4E901219047206A401C20622078C0064B
:1009300022D52046AFF300801EE0002E04DBB34535
:1009400002DD01A8805D00E03020D4E9012190475C
:10095000206A401C2062761CAAF101005FEA000AAE
:100960000AD100F03FF8C0680168405CD4E9012179
:100970009047206A401C2062281EA5F10105DCDC9E
:1009800007E0D4E9012118F8010B9047206A401CC8
:100990002062381EA7F10107F3DC2046AFF3008088
:1009A000032011B041E6000001694A1C0261087889
:1009B000704700B58FB0CDE901310021059105499F
:1009C0007944CDE9031011466846FFF70DFD0FB0DD
:1009D00000BD0000E5FFFFFF0A6802F8010B0A6096
:1009E0007047000000487047280B002030B5B0F178
:1009F0000A024FEA900E71F100034EEA817EB0EBDD
:100A00000E0061EB91014FEA101E4EEA017E10EBE1
:100A10000E0041EB11114FEA102E4EEA016E10EB61
:100A20000E0041EB11214FEA104E4EEA014E10EB41
:100A30000E0041EB1141401841F100014FEAD00096
:100A400040EA41704FEAD10110EB80054FEA810482
:100A500044EA907444EB01046D1944EB0404521B06
:100A6000A3414FF0000348BF0A3200D530BD401CFF
:100A700041F1000130BD00002DE9F0411F46044660
:100A800003260168072A01F4006004DB08B116A5FB
:100A900005E016A503E008B115A500E015A521F0B5
:100AA00010002060A069C01EA0610FB1401EA061AF
:100AB0002046AFF300804FB1D4E90121384690477A
:100AC000206A401C2062C01C206206E0206AFAE70F
:100AD000D4E9012115F8010B9047761EF8D2204683
:100AE000AFF30080BDE8F0814E414E006E616E00B4
:100AF000494E4600696E66002DE9F047814616466C
:100B00008AB0354878440DC88DE80D0032487844E5
:100B1000801C03AC0DC884E80D0041F69B300844EE
:100B2000372190FBF1F290FBF1F5A5F1800501FB77
:100B300012041B3C02D56442012000E00020DFF8D3
:100B400098A080460027FA44AAF1BE0A0EE0E0070A
:100B50000AD03246684607EB470101230AEB8101C0
:100B600000F046FB8DE8070064107F1C002CEED1DE
:100B7000194F7F44AE3F19E0E80715D007EB04108A
:100B80000DF1180A90E80E008AE80E00C068F042E5
:100B900001D1981908903246012306A903A800F054
:100BA00027FB03AB83E807006D10641C002DE3D125
:100BB0004FF0010332466946B8F1000F03A802D096
:100BC00000F001FB01E000F013FBC9E90001C9F8E6
:100BD00008200AB0BDE8F087806F00000048704729
:100BE000080B00207546FFF7F9FFAE460500694681
:100BF000534620F00700854618B020B5FFF756FB96
:100C0000BDE820404FF000064FF000074FF000080D
:100C10004FF0000B21F00701AC46ACE8C009ACE88E
:100C2000C009ACE8C009ACE8C0098D46704710B5F2
:100C30000446AFF300802046BDE81040FFF722BB1A
:100C40004FF0013C50F8042B51F8043B9A4221D15B
:100C5000A2EB0C03934313EACC1317D150F8042BE7
:100C600051F8043B9A4215D1A2EB0C03934313EACB
:100C7000CC130BD150F8042B51F8043B9A4209D104
:100C8000A2EB0C03934313EACC13DBD04FF000002C
:100C9000704700BFD01A01BAB1FA81F101F0180112
:100CA00022FA01F0CB40C1F12001DBB2C0B2C01A80
:100CB0002CFA01F3D11A914311EAC311E6D170471E
:100CC00001491820ABBEFEE72600020070475FEA2C
:100CD000400C08BF91F0000F4FEA8C234FEAC1226D
:100CE00043EA51514FEA1C5018BF00F5F0404FEA5B
:100CF000300018BF41F000415FEA6C5C00F02980D1
:100D0000BCF1FF3F08BF40F080407047130C06BFA6
:100D100012044FF0100C4FF0000C130E04BF12021F
:100D20000CF1080C130F04BF12010CF1040C930F0B
:100D300004BF92000CF1020CD30F04BF52000CF15F
:100D4000010C11464FF00002A0F11F00A0EB0C00B7
:100D5000704711F0004F08BF704731F000413FF479
:100D6000D5AF0B0C06BF09044FF0100C4FF0000C70
:100D70000B0E04BF09020CF1080C0B0F04BF090194
:100D80000CF1040C8B0F04BF89000CF1020CCB0F8B
:100D900004BF49000CF1010CCCF12003A0EB0C00C6
:100DA00022FA03F302FA0CF241EA030100F1010016
:100DB000704720F07F4C80EA030023F07F47ACEBC4
:100DC000070303F57C5300F0004003F1FF032DE916
:100DD00080494FEA154B09B44FEA144325EA0B4EFC
:100DE00024EA03480FF2042606EB132749083E784D
:100DF0005FEA320203FB0667C7F5000707FB06F64A
:100E00004FEA54374FEAD64606F1020607FB066C56
:100E1000CCF1005C4FEA1C472CEA074C07FB06F4B8
:100E20000CFB06F504EB15464FEA961634BF00207E
:100E30004FF000404FEAD13706FB07FC4FEA1C4C4D
:100E40000CFB0BF7D21B03FB0CF761EB07010CFB50
:100E50000EF7B0EB074072EB17420CFB08F734BFFC
:100E6000A2EB0742B2EB074261EB17414FEA0C4499
:100E70004FEA910706FB07FC4FEA1C4C0CFB0BF7F3
:100E8000B0EBC74072EB573203FB0CF734BFA2EB59
:100E9000C742B2EBC74261EB57310CFB0EF7B0EB28
:100EA000C70072EB57720CFB08F734BFA2EBC70206
:100EB000B2EBC70261EB5771039F4FEA816141EAD0
:100EC000921104EBCC044FEAD1374FEA826206FB61
:100ED00007FC42EA90124FEA80604FEA1C4C0CFB80
:100EE0000BF7D21B03FB0CF761EB07010CFB0EF7B2
:100EF000B0EB074072EB17420CFB08F734BFA2EBD4
:100F00000742B2EB074261EB17414FEA8C554FEABB
:100F1000910704EB9C2406FB07FC4FEA1C4C0CFBDE
:100F20000BF7B0EBC74072EB573203FB0CF734BF43
:100F3000A2EBC742B2EBC74261EB57310CFB0EF795
:100F4000B0EBC70072EB57720CFB08F734BFA2EB93
:100F5000C702B2EBC70261EB577115EB4C254FEAA4
:100F6000816141EA92114FEA82624FEAD13742EA47
:100F7000901206FB07FC44F100044FEA80604FEA40
:100F80001C4C0CFB0BF7D21B03FB0CF761EB0701AE
:100F90000CFB0EF7B0EB074072EB17420CFB08F7A7
:100FA00034BFA2EB0742B2EB074261EB174115EBEE
:100FB0001C154FEA813141EA92414FEA823242EAFE
:100FC00090424FEA80304FEA0C7644F1000448EA40
:100FD00003434EEA0B484FF0000EB2EB080C71EBE6
:100FE000030724BF624639464EEB0E0E4FF0000B4E
:100FF0000018524149414BEB0B0BB2EB080C71EB63
:1010000003077BF1000B24BF624639464EEB0E0E00
:101010004FF0000B0018524149414BEB0B0BB2EB68
:10102000080C71EB03077BF1000B24BF62463946C5
:101030004EEB0E0E51EA020718BF46F0010616EB02
:101040000E7655F1000254F1000103D5BDE8890187
:10105000BDE80088BDE88901BDE80048B6195241E5
:1010600041EB0101A3F10103704780807F7E7D7C0D
:101070007B7A7978777676757473727171706F6E2A
:101080006E6D6C6C6B6A6A696868676666656464D5
:10109000636362616160605F5F5E5E5D5D5C5C5B5F
:1010A0005B5A5A59595858575756565555555454CE
:1010B000535352525251515050504F4F4F4E4E4D2C
:1010C0004D4D4C4C4C4B4B4B4A4A4A494949484878
:1010D00048474747474646464545454444444443B8
:1010E00043434342424242414141002B9C4630D45B
:1010F00077002BD01CB54FEA370703B44FF0100030
:101100004FF01001BAF1000F06D0BCF1000FDCBFA8
:1011100040F0080040F008014FF000000FBCBDE8AF
:1011200010400BF1010BBBF1010F08BF5FEA17077D
:1011300022BF12F1010211F101014FF0004143F110
:10114000000300F0004043EA00007047F9D357085D
:10115000D0E746EA064613F1400F4FEA16461FDD78
:1011600013F1200FDFBF16430A46002120335B42F4
:10117000BED0C3F1200746EA064602FA07F74FEA57
:10118000164646EA0706C3F1200722FA03F201FADF
:1011900007F721FA03F14FF0000342EA0702A7E73D
:1011A00046EA020646EA06464FEA164646EA0106BF
:1011B000BCBF46EA0646360C4FF000034FF0000273
:1011C0004FF0000194E72DE9804C9A46934670B4A5
:1011D00091E8380007C831EA400C48BF34EA430CB4
:1011E00003D5FFF7E6FDFFF780FFF0BCBDE8008CFC
:1011F0002DE9804C9A46934670B491E8380007C8B0
:1012000010F0804F08BF13F0804F03D100F005F8B5
:10121000FFF76BFFF0BCBDE8008C20F07F4780EA51
:10122000030023F07F4C07EB0C03A3F57C5300F085
:101230000040A3F1FE0392F0000F00F0B38095F0A0
:10124000000F00F077802DE901494FEA11404FEA85
:10125000144621EA004800FB06FC24EA064708FB86
:1012600006F607FB08F800FB07F718EB06484CEBFF
:10127000164C4FEA124B18EB07484FEA15464CEB59
:10128000174022EA0B4E0BFB06FC25EA06470EFB35
:1012900006F607FB0EFE0BFB07F71EEB064E4CEBAC
:1012A000164C4FF000061EEB074E4CEB174B18EB9D
:1012B0000B0840F1000018EB0E0B58EB000840F152
:1012C00000008F1A4FF000013CBFC943661B14BFDA
:1012D000B5EB040C00213CBFC943F61B4FEA174491
:1012E0004EEA8E0E27EA04454FEA1C4704FB0762CC
:1012F0002CEA074C05FB07F70CFB05F604FB0CFC7E
:1013000016EB074642EB174216EB0C4642EB1C422B
:101310001BEB060658EB0202414146EA9E0601D548
:10132000BDE80189B619524141EB0101A3F1010366
:10133000BDE801894FEA14454FEA114724EA054602
:1013400021EA074C05FB07F406FB07F70CFB06F147
:1013500005FB0CFC11EB074144EB17444FEA124725
:1013600011EB0C4144EB1C4422EA074C05FB07F24D
:1013700006FB07F70CFB06F605FB0CFC16EB074615
:1013800042EB174216EB0C4642EB1C456A1854F12F
:10139000000148BF7047B619524141EB0101A3F16A
:1013A0000103704795F0000F37D04FEA11424FEA22
:1013B000144721EA024624EA074C02FB07F106FB28
:1013C00007F70CFB06F402FB0CFC14EB074441EBA3
:1013D00017414FEA154714EB0C4441EB1C4125EA39
:1013E000074C02FB07F506FB07F70CFB06F602FBB2
:1013F0000CFC16EB074645EB174516EB0C4645EB88
:101400001C42121951F1000148BF7047B6195241F0
:1014100041EB0101A3F1010370474FEA14454FEA84
:10142000114724EA054621EA074C05FB07F106FBB4
:1014300007F70CFB06F24FF0000605FB0CFC12EB65
:10144000074241EB174112EB0C4251EB1C4148BFE4
:101450007047921841EB0101A3F1010370470000AE
:1014600070B504460068816811F0010F2DD18168C4
:10147000174A11421AD18168D5432940491C81601D
:1014800000F04AFF06461BE0816811F0010F03D10E
:1014900081682940491C816000F03EFF801B0228C2
:1014A0000ED920680068C043C00709D0E06D40F045
:1014B0001000E065206E40F001002066012070BD44
:1014C00020680168C943C907DED1002070BD000053
:1014D0003F00008070B5164800F0F0FB144800F0A3
:1014E000AFFA04F011FF9FED131B53EC112B04F026
:1014F0001FFF9FED121B53EC112B04F019FF04F09A
:1015000029FE104C0025B0F1804FE06301DAA57090
:1015100001E00120A0702079012806D1A078E178AF
:10152000884202D003F044FD2571A078E07070BDC0
:10153000B40800206666666666660A400000000021
:101540000000303F00000020FEE70000014800F0EE
:10155000A0BC0000480A0020014800F09ABC00002E
:10156000A80A00200D4902688A4201D20C4901E014
:101570000B492031D2B21423083AB2FBF3F2436C88
:1015800002F01F0223F003031944816404498031EF
:10159000C1640121914001657047000008040240C8
:1015A000000802400179074A02EB81024265054AC0
:1015B0004432491E826501F01F0201219140C1653C
:1015C00070470000FC08024030B5D0E91345656063
:1015D000446D14B1D0E91645656090F8444004F0BC
:1015E0001F050124AC40056C6C600468636083686F
:1015F000102B036803D099600068C26030BD9A6008
:101600000068C16030BD7047002240F6B83306E084
:101610000021491C89B29942FBD3521C92B28242EA
:10162000F6D3704772B6FEE72DE9F84F002704465F
:10163000009790F85800DFF8D8930D46B846012877
:1016400011D0012684F85860206803F059FA60B17F
:10165000E06D40F02000E0655FF0010784F85880FD
:101660003846BDE8F88F0220FBE7D5E900210C23BE
:10167000206803EA91131844036B01F01F014FF037
:101680001F0C0CFA01FCC2F3846223EA0C038A40AB
:1016900013430363206803F033FA8246206803F0A3
:1016A0002BFA5AEA00003CD1AA6829682068B2F1F6
:1016B000004F37D003F028FA2068416921F000413B
:1016C000416120686969C268C2F3C1025200914059
:1016D0002A69042A31D000EB82002B68026EDFF801
:1016E00034C303F0F84302EA0C020B431A4342F0FE
:1016F0000041016620682A69A96900EB8200026E38
:1017000022F080720A430266297F22682869012933
:1017100010D0002102EB8000026E22F000720A431A
:1017200002667DE0002203F0EFF92068416941F094
:101730000041C5E74FF00071ECE7002103F0D6F956
:10174000400320684FF0000172D003F0CFF990FA07
:10175000A0F0B0FA80F1286842036ED090FAA0F0B1
:10176000B0FA80F0814204D100221146206803F0D3
:10177000DAF90121206803F0B9F9400320684FF03D
:1017800001015DD003F0B2F990FAA0F0B0FA80F157
:101790002868420359D090FAA0F0B0FA80F0814254
:1017A00004D100220121206803F0BDF90221206844
:1017B00003F09CF9400320684FF0020148D003F089
:1017C00095F990FAA0F0B0FA80F12868420344D06D
:1017D00090FAA0F0B0FA80F0814204D100220221F8
:1017E000206803F0A0F90321206803F07FF940038B
:1017F00020684FF0030133D003F078F990FAA0F09D
:10180000B0FA80F1286842032FD090FAA0F0B0FA25
:1018100080F0814204D100220321206803F083F983
:101820002068816811F0010F22D0A8E000E004E0F8
:1018300003F05CF9C0F384618DE7C0F3846091E745
:1018400003F054F9C0F38461A2E7C0F38460A6E713
:1018500003F04CF9C0F38461B7E7C0F38460BBE7E1
:1018600003F044F9C0F38461CCE7C0F38460D0E7AF
:10187000EB6829684B4550F8B03FC1F3120101D124
:101880000B4300E08B430360E868484577D1286844
:1018900041031CD090FAA0F1B1FA81F1491C01F08A
:1018A0001F0109294FEA403132D8002912D000BF68
:1018B00090FAA0F1B1FA81F101F1010101F01F01EB
:1018C00006FA01F609D100BFC0F3846109E0C0F354
:1018D0008461E3E7C0F38461EEE790FAA0F1B1FA26
:1018E00081F101F1010101F01F0146EA816102D19C
:1018F000C0F3846003E090FAA0F0B0FA80F000F149
:10190000010000F01F0000EB400041EA005132E00E
:1019100000290ED090FAA0F1B1FA81F101F1010194
:1019200001F01F0106FA01F606D100BFC0F3846181
:1019300006E0C0F38461F1E790FAA0F1B1FA81F119
:1019400001F1010101F01F0146EA816102D1C0F3FA
:10195000846003E090FAA0F0B0FA80F000F101009A
:1019600000F01F002C4A00EB400002EB005041EA5F
:10197000000141F00071AA68206803F0C5F827480B
:101980002A6802423FF46AAE25488168254B01F07F
:10199000E0719A4202D0244B9A421CD10B021AD415
:1019A0002268B2F1A04F7FF459AE826841F4000181
:1019B00022F0E0720A4382601C481D490068B0FBB7
:1019C000F1F0401C00EB4000800000E0401E009061
:1019D0000028FBD142E6174D174BAA4207D1CD0193
:1019E00005D422689A42F5D041F0807109E0134D88
:1019F000AA42EFD14A02EDD422689A42EAD041F4D9
:101A00008001826822F0E0720A43826026E60000CC
:101A100000007F4000F0FF03000020FE000008806F
:101A200000030050000021C31000C0906800002097
:101A3000400D0300000052C700010050000084CB9D
:101A40000068006C70470000F8B54FF00005040016
:101A50002E46009502D0E06D10B107E00120F8BDE0
:101A6000204600F0EFF8266684F858602068816808
:101A7000C1F3407119B181686A4A114081602068E0
:101A80008168C1F3007189B98168674A114041F0EA
:101A900080518160654866490068B0FBF1F0400004
:101AA000801C00E0401E00900028FBD12068816867
:101AB000C1F3007141B9E16D41F01001E165216EA2
:101AC00041F001012166012503F01AF8E16DC90614
:101AD00000D430B1E06D40F01000E06501252846EB
:101AE000F8BDE06D20F4807040F00200E0652068F1
:101AF000806810F0010F11D14FF0A04080684D496F
:101B000000F00100896801F00101084306D14A484C
:101B10006168826822F47C120A438260E168E06BAB
:101B2000627F0843A16841EA4231084394F82410D7
:101B300040EA0140012904D1218D404A02EB414194
:101B40000843E16A29B101F47871226B014342EA4A
:101B500001002168CA683A4B1A400243CA602068F3
:101B60000169626B21F0406111430161206802F05C
:101B7000C7FF0646206802F0BFFF30432ED1207F0A
:101B800094F83810800340EA41022068C16844F2AA
:101B9000020399431143C16020690028206801694C
:101BA0000AD041F480310161206850F8C01F2269D9
:101BB0006FF30D01114307E021F4803101612068CA
:101BC00050F8C01F6FF30D01016094F84000012828
:101BD0000CD02068016921F00101016160690128D0
:101BE0002068016B21F00F0111D013E0D4E911013D
:101BF0000843D4E913121143084321680A6940F2EB
:101C0000FC739A43104340F001000861E6E7226A42
:101C1000521E11430163E06D20F0020040F001000C
:101C2000E0655CE7C0FFFF5FC0FFFF7F680000204A
:101C3000400D030000010050000300500000FEFFB3
:101C40000740F0FF10B598B00446142111A8FEF724
:101C500071FC44216846FEF76DFC164920688842F5
:101C600025D1C001009080030F90684600F052FC1F
:101C700008B1FFF7D7FC1048C16C41F40051C164B2
:101C8000C16C01F400511691C16C41F00101C164B5
:101C9000C06C11A900F001001690102011900320D3
:101CA0001290002013904FF0904000F007FA18B007
:101CB00010BD000000010050001002402DE9F0416D
:101CC00004463848806800F01F05206802F018FFBD
:101CD00018B102210846BDE8F08194F858000128A7
:101CE0000CD0012084F858002046FFF7B9FB010012
:101CF0004FF0000304D084F85830EBE70220EAE705
:101D0000E06D40F60162904340F48070E065264A41
:101D100020684FF0A046904201D1374600E00746C8
:101D2000874200D01DB9E76D27F48017E765E76D9E
:101D3000FF0404D5276E27F00607276600E0236618
:101D40001C27076084F858302068904201D1334640
:101D500000E00346834215D0A5B1052D12D0092D10
:101D600010D0E36D43F48013E365904200D1304618
:101D7000C0688001AED5E06D20F4005040F4805082
:101D8000E065A7E7C268920105D5E26D22F4005232
:101D900042F48052E2658268044B1A40121D826050
:101DA00098E700000003005000010050C0FFFF7FD3
:101DB00010B590F8253000210122022B03D0042118
:101DC000C163012122E003681C6824F00E041C603A
:101DD000836C1C6824F480741C6003681C6824F005
:101DE00001041C6090F84430046C03F01F0302FAF5
:101DF00003F36360D0E913345C60436D33B11C6856
:101E000024F480741C60D0E916345C6080F82520CE
:101E1000002280F82420084610BD70B590F82520D7
:101E2000002401212346022A07D00422C26380F83D
:101E3000251080F82430012429E00268156825F077
:101E40000E0515600268156825F001051560826CA5
:101E5000156825F48075156090F84420056C02F033
:101E60001F0201FA02F26A60D0E913255560426D43
:101E700032B1156825F480751560D0E916255560D6
:101E800080F8251080F82430816B01B18847204606
:101E900070BDF0B4016C0C6801680D6890F84420C6
:101EA00002F01F06042202FA06F3234211D06B0748
:101EB0000FD50B689B0603D40B6823F004030B605B
:101EC00090F8441001F01F018A40016C4A60016BD8
:101ED0001DE0022303FA06F727424FF0000C4FF0F3
:101EE000010218D0AF0716D50C68A40605D40C68FB
:101EF00024F00A040C6080F8252090F8441001F0CA
:101F00001F018B40016C4B6080F824C0C16A00291E
:101F10001AD0F0BC08470823B340234214D02B0743
:101F200012D50B6823F00E030B6090F84410036C7D
:101F300001F01F0102FA01F15960C26380F8252007
:101F400080F824C0416BE2E7F0BC704770B5040034
:101F50000CD02B4A21681420914209D2294A0A4404
:101F6000B2FBF0F08000606427480AE0012070BDF9
:101F7000234A52420A44B2FBF0F0800060642048D9
:101F800008382064022084F825000A6847F6F070BB
:101F90008243D4E902031843D4E904352B431843A0
:101FA000A3691843E3691843236A18431043086080
:101FB0002046FFF7D7FAA0680025B0F5804F00D182
:101FC0006560A16C20790860D4E913014160606804
:101FD000401E032808D82046FFF7E4FA606D05602C
:101FE000D4E91601416002E06565A565E565E56334
:101FF000012084F8250084F82450002070BD0000E2
:1020000008040240F8FFFDBF0000024070B504461E
:1020100090F82400002501280CD0012084F8240029
:1020200094F825600020012E06D084F824000225B3
:10203000284670BD022070BD022684F82560E0634A
:102040002068066826F0010606602046FFF7BCFA05
:10205000206B00282068016802D041F00E0106E0E4
:1020600021F0040101602068016841F00A0101606B
:10207000A06C0168C90303D5016841F48071016057
:10208000606D18B1016841F48071016020680168D9
:1020900041F001010160CBE770B5044600F03CF966
:1020A0000546601C02D004484068044400F034F93E
:1020B000401BA042FAD370BD5C0000202DE9F04F18
:1020C000DFF82092002301260324A9F1040B85B038
:1020D0000F2709F1040AABF1040EFAE006FA03F542
:1020E0002A407CD091F804C00CF0030CBCF1010F25
:1020F00002D0BCF1020F26D1D0F808C0CDF800C044
:102100004FEA430C04FA0CF8CDF810C0DDF800C01B
:102110002CEA080CCDF800C0D1F80C80DDF810C016
:1021200008FA0CF8DDF800C048EA0C08C0F808808E
:10213000D0F804C02CEA050C0D79C5F300159D40BC
:1021400045EA0C0545600D79ED43AD070ED0C56835
:102150004FEA430804FA08FC25EA0C05D1F808C048
:102160000CFA08FC4CEA050CC0F80CC00D7905F01F
:102170000305022D16D1DD0800EB850CCDF808C053
:10218000DCF820805D074FEAD56C07FA0CF528EAE9
:1021900005080D6905FA0CF5DDF808C045EA0805E3
:1021A000CCF8205005684FEA430CCDF808C004FA7B
:1021B0000CFC25EA0C0591F804C00CF00308DDF8CE
:1021C00008C008FA0CF848EA0508C0F800804D6815
:1021D00015F4403F7CD0444DD5F860C000E077E076
:1021E0004CF0010CC5F860C02D6E23F0030C05F017
:1021F000010500953D4D65440295AD684FEA837C2D
:102200004FEA1C7807FA08FC25EA0C05B0F1904F5C
:1022100006D0DFF8DCC0604505D14FF0010C20E0AE
:102220004FF0000C1DE0DFF8CCC0604502D14FF04C
:10223000020C16E0DFF8C0C0604502D14FF0030C7D
:102240000FE0DFF8B8C0604502D14FF0040C08E0A1
:10225000DFF8ACC0604502D14FF0050C01E04FF053
:10226000060C0CFA08FC4CEA050C029DC5F808C0E7
:10227000D9F80050CC46D1F8048095435FEAC828CD
:1022800000D51543CCF80050DAF80050D446D1F808
:10229000048095435FEA882800D51543CCF80050A8
:1022A000DBF80050DC46D1F8048095435FEA8838BB
:1022B00000D51543CCF80050DEF80050F446D1F8B4
:1022C000048095435FEAC83800D51543CCF8005028
:1022D0005B1C0A6832FA03F57FF400AF05B0BDE875
:1022E000F08F00000804014000100240000001408F
:1022F0000004004800080048000C00480010004896
:10230000001400480069084000D0012070470AB15D
:1023100081617047816270470148806870470000A2
:102320005C00002002488168426811448160704767
:102330005C00002010B50024032000F073F80F208B
:1023400000F008F808B1012401E000F025F820466B
:1023500010BD000070B50E4E05460024706898B19F
:102360004FF47A71B1FBF0F00A490968B1FBF0F063
:1023700000F064FD40B9102D06D200222946501EFF
:1023800000F030F8356000E00124204670BD000008
:102390005C000020680000200A4882B0016E41F015
:1023A00001010166016E01F001010091816D41F0B2
:1023B00080518165806D00F08050009002B000F087
:1023C000A1B8000000100240002809DB00F01F0245
:1023D000012191404009800000F1E020C0F8001187
:1023E00070470000F0B40E4B1B680C46C3F3022389
:1023F000C3F10705042D00D90425191D072901D2B1
:10240000002300E0DB1E012606FA05F1491E2140EB
:1024100099409E40761E16403143F0BC03F02BBE1F
:102420000CED00E0064900F0070208684FF6FF03D4
:10243000184040EA0220034A104308607047000039
:102440000CED00E00000FA052B492C4B0A68322104
:102450004A432B4940B1B0F5007F086829D020F4E9
:10246000C06040F480602CE00868C0F3412002287E
:1024700004D051F8800F20F4807022E0D1F8800061
:1024800020F48070C1F88000086820F4C06040F437
:1024900000700860B2FBF3F0401C00E0401E4A6987
:1024A000520501D50028F9D1486940050AD5032015
:1024B0007047C0F34120022806D051F8800F40F445
:1024C0008070086000207047D1F8800040F4807070
:1024D000C1F88000086820F4C06040F40070086013
:1024E000B2FBF3F0401C00E0401E4A695205DBD508
:1024F0000028F9D1D8E700006800002040420F0012
:10250000007000400248816841F48041816070475A
:10251000007000402DE9F8430446006800269D4DF8
:1025200000035ED5A86D0027C00008D4A86D40F058
:102530008050A865A86D012700F080500090DFF85A
:102540005892D9F8001041F48071C9F80010FFF7D3
:10255000E3FE804606E000BFFFF7DEFEA0EB0800CA
:1025600002282BD8D9F80000C005F5D5D5F8900081
:1025700010F4407014D0216C814211D0D5F8900035
:10258000D5F8901020F4407041F48031C5F89010D7
:10259000D5F8901021F48031C5F89010C5F890005E
:1025A000C00711D0FFF7B8FE804641F2883907E036
:1025B000FFF7B2FEA0EB0801494501D903260BE065
:1025C000D5F890008007F3D5D5F89000216C20F461
:1025D00040700843C5F890001FB1A86D20F08050EE
:1025E000A8652078C00707D0D5F88800616820F07A
:1025F00003000843C5F888002078800707D5D5F880
:102600008800A16820F00C000843C5F888002078F5
:10261000400707D5D5F88800E16820F0300008436E
:10262000C5F888002078000707D5D5F8880021690B
:1026300020F0C0000843C5F888002078800607D540
:10264000D5F88800616920F440600843C5F8880027
:102650002078400607D5D5F88800A16920F44050BD
:102660000843C5F888002078000607D5D5F888000B
:10267000E16920F440400843C5F888002088C0057F
:1026800007D5D5F88800216A20F440300843C5F802
:1026900088002088800507D5D5F88800616A20F475
:1026A00040200843C5F88800208840050FD5D5F89C
:1026B0008800A16A20F440100843C5F88800A06A89
:1026C000B0F5801F03D1E86840F48010E8602088EE
:1026D00000050FD5D5F88800E16A20F440000843D2
:1026E000C5F88800E06AB0F5800F03D1E86840F4CF
:1026F0008010E8602088C0040FD5D5F88800216BD1
:1027000020F040700843C5F88800206BB0F1807F4E
:1027100003D1E86840F48010E86020884FF0006141
:1027200080040ED5D5F88800626B20F0406010431D
:10273000C5F88800606B884203D1E86840F48010D7
:10274000E860208840040ED5D5F88800A26B20F000
:1027500040601043C5F88800A06B884203D1E86848
:1027600040F48010E860208800040FD5D5F8880078
:10277000E16B20F040500843C5F88800E06BB0F1F1
:10278000805F03D1E86840F48030E8603046BDE8FF
:10279000F883000000100240007000402DE9F0476F
:1027A0000E4605004FF0000725D0DFF8AC81D8F8C1
:1027B000000000F00F00B0420CD2D8F8001021F059
:1027C0000F013143C8F80010D8F8000000F00F00E6
:1027D000B04210D12968614CC80741F2883A5AD0FA
:1027E0006868DFF87C91032808D0022820682DD083
:1027F000400500282CDB0120BDE8F087206880011F
:10280000F9D5E06800F00302E068C0F30310401C53
:10281000032A19D0534A00BFB2FBF0F0E268C2F3BA
:1028200006225043E268C2F34162521C5200B0FBE0
:10283000F2F0484517D9A06810F0F00F0CD08807C7
:1028400011D5A86840B10EE0474AE5E78003D0E71C
:1028500000F0B6F8484506D9A06820F0F00040F036
:102860008000A0608027A068696820F0030008430A
:10287000A060FFF751FD814606E000BFFFF74CFD69
:10288000A0EB090151453AD8A068696800F00C0036
:10289000B0EB810FF2D12868810714D5400703D52A
:1028A000A06840F4E060A0602878000705D5A06823
:1028B00020F4605040F4E060A060A068A96820F0B7
:1028C000F000084304E0802F03D1A06820F0F0005E
:1028D000A060D8F80010404601F00F01B14216D9AF
:1028E000016821F00F0131430160FFF715FD074634
:1028F00007E000BFFFF710FDC11B514501D90320C0
:102900007AE7D8F8000000F00F00B042F2D1287842
:10291000400705D5A068E96820F4E0600843A0609E
:102920002878000706D5A068296920F4605040EA9D
:10293000C100A06000F044F8A1680C4AC1F3031183
:10294000515C01F01F01C84009490860094800684E
:10295000BDE8F047FFF7FEBC002002400010024037
:1029600000B4C4040024F40000366E01226800089C
:10297000680000205C00002005480649006889685E
:10298000054AC1F30221515C01F01F01C8407047A4
:10299000680000200010024032680008054806491F
:1029A00000688968054AC1F3C221515C01F01F012A
:1029B000C8407047680000200010024032680008DC
:1029C000184910B58868C0F381021748012A0BD056
:1029D0008A68164BC2F38102022A06D08A68C2F3C3
:1029E0008102032A03D0002010BD184610BDCA681A
:1029F00002F00304CA68C2F30312521C032C02D073
:102A0000B0FBF2F001E0B3FBF2F0CA68C968C2F3B0
:102A100006225043C1F34161491C4900B0FBF1F06B
:102A200010BD0000001002400024F40000366E01CA
:102A30002DE9F84304007AD02078FA4DC00747D03A
:102A4000A868E96800F00C0001F003010C2802D02E
:102A5000082817D001E0032914D06068B0F5803F42
:102A600017D0B0F5A02F286817D020F48030286048
:102A7000286820F4802028606068E0B1FFF74CFCF3
:102A8000064614E02868800322D560680028D2D06A
:102A90001EE0286840F48030EDE740F48020286094
:102AA000F7E700BFFFF738FC801B642870D8286860
:102AB0008003F7D50CE0FFF72FFC064605E000BFCA
:102AC000FFF72AFC801B6428F0D828688003F7D41D
:102AD000207880074CD5A868E96800F00C0001F068
:102AE00003010C2802D004280DD001E002290AD0ED
:102AF000E068002828682BD040F480702860FFF739
:102B00000BFC064619E02868400502D5E06800285D
:102B100091D06868217C20F0FE4040EA0160686046
:102B2000C1480068FFF716FC002800D120E076E1DC
:102B3000FFF7F2FB801B0228B8D828684005F7D5BC
:102B40006868217C20F0FE4040EA016068600FE088
:102B500020F480702860FFF7DFFB064605E000BF29
:102B6000FFF7DAFB801B0228A0D828684005F7D4BD
:102B70002078000729D560690028D5F8940013D083
:102B800040F00100C5F89400FFF7C6FB064606E0DA
:102B900090E000BFFFF7C0FB801B022886D8D5F865
:102BA00094008007F6D510E020F00100C5F89400ED
:102BB000FFF7B2FB064604E0FFF7AEFB801B0228DE
:102BC00078D8D5F894008007F6D42078400761D5EE
:102BD000A86D0026C00008D4A86D40F08050A865FC
:102BE000A86D012600F08050009090480168C9054A
:102BF00011D40168804641F480710160FFF78CFBBD
:102C0000074604E0FFF788FBC01B022852D8D8F81B
:102C10000000C005F6D5A068012815D00528D5F814
:102C2000900016D020F00100C5F89000D5F8900073
:102C300020F00400C5F89000A06841F28838B8B1CF
:102C4000FFF76AFB07460EE0D5F8900040F0010060
:102C5000F0E740F00400C5F89000F5E7FFF75CFBF3
:102C6000C11B414526D8D5F890008007F6D50CE069
:102C7000FFF752FB074604E0FFF74EFBC11B41453F
:102C800018D8D5F890008007F6D41EB1A86D20F0B2
:102C90008050A8652078800629D5A0690028D5F83D
:102CA000980013D040F00100C5F89800FFF734FBFE
:102CB000064606E077E000BFFFF72EFB801B0228E8
:102CC00077D8D5F898008007F6D510E020F00100FD
:102CD000C5F89800FFF720FB064604E0FFF71CFB51
:102CE000801B022865D8D5F898008007F6D4E069E3
:102CF000F0B3A968C1F38101032961D002282868D3
:102D000020F0807028600BD0E86820F00300E860B5
:102D1000E86847490840E860FFF7FEFA04464BE0E0
:102D2000FFF7FAFA064604E0FFF7F6FA801B0228DE
:102D30003FD828688001F7D4F4E908016FF00F024A
:102D400002EB01110843218A5204490802EB415168
:102D5000A26841EA02210843217D4FF07E424908E2
:102D600002EB41610843217B40EAC160E96800E071
:102D700062E0304A11400843E860286840F0807003
:102D80002860E86840F08070E860FFF7C5FA044604
:102D900005E000BFFFF7C0FA001B022809D8286829
:102DA0008001F7D548E004E0FFF7B6FA001B0228DF
:102DB00002D90320BDE8F88328688001F4D43BE001
:102DC0000128F7D0E868226A00F00301914226D179
:102DD000616A00F0F0020901103991421FD1A26A24
:102DE00000F4FE41B1EB022F19D194F82C2000F031
:102DF0007841B1EBC26F12D1218E00F4C0024908B4
:102E00004905A1F50011914209D194F8341000F060
:102E1000C06049084906A1F1007181420CD001202F
:102E2000C8E70000001002405C0000200070004075
:102E3000FFFFEEFE0C809F010020BBE710B5401E97
:102E4000B0F1807F01D3012010BD4FF0E02460611C
:102E50000F21601703F00FF90020A0610720206107
:102E6000002010BD7047704770477047704770472B
:102E7000F0B590F83C20012A3AD0012580F83C506A
:102E8000022280F83D2003685A689C68194E1A4F48
:102E9000B34201D0BB4204D122F4700C4A6842EA2A
:102EA0000C02DFF858C002EA0C02D1F800C04CEA6C
:102EB000020CC3F804C00268B2420DD0B2F1804FD8
:102EC0000AD00F4B9A4207D00E4B9A4204D0BA4216
:102ED00002D00D4B9A4204D1896824F08003194333
:102EE000916080F83D50002180F83C100846F0BD0C
:102EF0000220F0BD002C0140003401408FFFFFFD97
:102F0000000400400008004000400140704710B538
:102F1000040003D094F83D0010B107E0012010BD7B
:102F2000002084F83C00204600F022F8022084F8BB
:102F30003D00211D206802F005FB012084F84800B7
:102F400084F83E0084F83F0084F8400084F8410093
:102F500084F8420084F8430084F8440084F8450073
:102F600084F8460084F8470084F83D00002010BD36
:102F700070B586B0044614216846FDF7DBFA226876
:102F800000242C4902254FF09040B2F1804F31D0FF
:102F9000294B9A422CD18A6D42F002028A658A6DD1
:102FA00002F002020592CA6C42F00102CA64C96CC6
:102FB000064601F00101059180210091CDE90154FF
:102FC0006946CDE90345FFF779F840200090CDE947
:102FD000015469463046CDE90345FFF76FF80022FA
:102FE00011461D20FFF7FEF95FF01D00FFF7ECF919
:102FF00006B070BD8A6D42F001028A658A6D02F0EA
:1030000001020592CA6C42F00102CA64C96C0095C3
:1030100001F001010591CDE901540121CDE9034100
:103020006946FFF74BF8002211461C20FFF7DAF93A
:103030001C20DBE7001002400004004090F83D1027
:10304000012901D001207047022180F83D1000685D
:103050000F4988420ED0B0F1804F0BD00D49884205
:1030600008D00D49884205D00C49884202D00C494D
:10307000884207D181680B4A1140062906D0B1F574
:10308000803F03D0016841F00101016000207047DA
:10309000002C0140000400400008004000340140C2
:1030A000004001400700010001680A6A41F2111363
:1030B0001A4207D10A6A9B001A4203D10A6822F019
:1030C00001020A60012180F83D10002070470000D5
:1030D00070B5044690F83C000025012814D0012664
:1030E00084F83C60022084F83D0022689068364BEA
:1030F000184020F47F409060086870282ED010DCC3
:1031000010F00F0F03D021E04FF0020070BD4FEA26
:103110002012072A1AD2DFE802F0525252524A38DD
:1031200040002A4BC21A984249D009DCB0F5805FB2
:103130000DD0B0F5005F1CD0B0F1101F06D13EE0FD
:10314000102A3CD0202A3AD0502A38D0012584F8C1
:103150003D60002084F83C00284670BDCB68D1E972
:103160000121206802F053FA2068816841F077015C
:1031700009E0CB68D1E90121206802F048FA206813
:10318000816841F480418160E1E7CA68496820684C
:1031900002F0BAFA5021206806E0CA68496820683F
:1031A00002F0FAFA6021206802F03CFACFE7CA6820
:1031B0004968206802F0A8FA40212068F4E72268F4
:1031C00001461046F0E7000088FFCEFF2000100007
:1031D000334A3449904240D10B78126813B1012B25
:1031E0001ED03AE0037F012B02D0022B0FD034E037
:1031F000526B521C00EE102AB8EE400A81ED090A0B
:10320000D1ED080A80EE801A81ED071A25E0926B55
:10321000521C00EE102AB8EE400A81ED080A1CE0AC
:10322000037F022B02D0012B0FD016E0926B521CB1
:1032300000EE102AB8EE400A81ED0C0AD1ED0B0A1F
:1032400080EE801A81ED0A1A07E0526B521C00EEE4
:10325000102AB8EE400A81ED0B0A134A904214D1AD
:10326000027F1148012A006810D0022A0DD1806B1C
:10327000DFED0E0A401C00EE100AB8EE400A81EDA8
:103280000E0A80EE801A81ED121A7047406B401CC6
:1032900000EE100AB8EE400A81ED0D0A70470000FA
:1032A0006C0900200000002020090020002474493F
:1032B0002DE9F041054690F83C0000260C46012817
:1032C00010D0012085F83C0072B1042A1CD0082AD5
:1032D0002CD00C2A50D00126002085F83C00304626
:1032E000BDE8F0810220FBE7D4E90012E36828681A
:1032F00002F01CFA2868816921F00C0181612868BC
:103300008169A26811430FE0D4E90012E3682868DC
:1033100002F054FA2868816921F4406181612868CB
:103320008169A26841EA02218161D5E72868D4E970
:10333000002C277B016A21F480710162C169036A54
:1033400021F0030141EA0C0121F0F00C39074FF4A0
:1033500020674CEA116123F4206307EA02221A4332
:10336000C16102622868C16921F00C01C16128684D
:10337000C169A268114328E02868D4E90027E16800
:10338000036A23F480530362D0F81CC0036A2CF450
:10339000407C4CEA07274FF6FF7C27F470470CEA85
:1033A000013139434FF4204723F4204307EA023226
:1033B0001A43C16102622868C16921F44061C16198
:1033C0002868C169A26841EA0221C16184E710B599
:1033D000040003D094F83D0010B107E0012010BDB7
:1033E000002084F83C00204600F022F8022084F8F7
:1033F0003D00211D206802F0A5F8012084F8480056
:1034000084F83E0084F83F0084F8400084F84100CE
:1034100084F8420084F8430084F8440084F84500AE
:1034200084F8460084F8470084F83D00002010BD71
:103430007047000030B50446002571B1042911D051
:10344000082914D00C2917D0102918D094F843005B
:1034500094F84720012817D114E094F83E0094F81E
:103460004420F7E794F83F0094F84520F2E794F8F9
:10347000400094F84620EDE794F84100E8E794F81E
:103480004200E5E7012A01D0012030BD022079B1D8
:10349000042916D008291DD00C2949D010294AD05A
:1034A00084F8430084F847000C2947D001253DE00B
:1034B00084F83E0084F844002068C26842F00202AA
:1034C00010E084F83F0084F845002068C26842F0AC
:1034D000040207E084F8400084F846002068C268CF
:1034E00042F00802C2600122206802F083F8164907
:1034F000206888420ED0B0F1804F0BD0134988422B
:1035000008D01349884205D01249884202D0124996
:10351000884207D18168114A1140062906D0B1F5C9
:10352000803F03D0016841F001010160284630BDB1
:1035300084F84100B6E784F84200B3E72068C26827
:1035400042F01002CEE70000002C014000040040D1
:103550000008004000340140004001400700010025
:1035600070B50D0004464FF0000607D0042D0AD0B8
:10357000082D0DD00C2D10D0012635E02068C16833
:1035800021F002010DE02068C16821F0040108E08B
:103590002068C16821F0080103E02068C16821F0BB
:1035A0001001C16000222946206802F023F820683B
:1035B000016A41F21112114207D1016A92001142CF
:1035C00003D1016821F001010160012075B1042DD2
:1035D0000FD0082D10D00C2D12D0102D13D084F840
:1035E000430000BF84F84700304670BD04F83E0F2A
:1035F00004E004F83F0F01E004F8400FA071F3E786
:1036000084F84100EEE784F84200EBE770B5044629
:10361000006801694FF00005C943890715D4C168E6
:10362000C943890711D4E91E016101202077206870
:1036300080698007204602D0FFF7CAFD04E000F051
:10364000E3F8204600F0E1F8257720680169C943D6
:10365000490717D4C168C943490713D46FF004015F
:103660000161022020772068806910F4407F2046A5
:1036700002D0FFF7ADFD04E000F0C6F8204600F0F0
:10368000C4F8257720680169C943090716D4C168C1
:10369000C943090712D46FF00801016104202077A3
:1036A0002068C0698007204602D0FFF791FD04E042
:1036B00000F0AAF8204600F0A8F8257720680169F4
:1036C000C943C90617D4C168C943C90613D46FF0EA
:1036D00010010161082020772068C06910F4407F44
:1036E000204602D0FFF774FD04E000F08DF820467C
:1036F00000F08BF8257720680169C943C90708D114
:10370000C168C943C90704D1891E0161204600F080
:103710007DF820680169C943090609D4C168C94315
:10372000090605D46FF0800101612046FFF79BFB7D
:1037300020680169C943C90509D4C168C94309069C
:1037400005D46FF4807101612046FFF78BFB206880
:103750000169C943490609D4C168C943490605D46A
:103760006FF040010161204600F07CF8206801699B
:10377000C943890609D4C168C943890605D46FF0D5
:10378000200101612046FFF76FFB20680169C943F2
:10379000C90209D4C168C943C90205D46FF48011B4
:1037A00001612046FFF762FB20680169C943890275
:1037B00009D4C168C943890205D46FF400110161BD
:1037C0002046FFF752FB20680169C943490209D42A
:1037D000C168C943490205D46FF4800101612046E4
:1037E000FFF745FB20680169C94309020BD4C16892
:1037F000C943090207D46FF4000101612046BDE806
:103800007040FFF783BB70BD70477047704770B55D
:10381000044690F83C00012812D0012584F83C5061
:10382000022084F83D00204601F006FF01004FF021
:10383000000007D084F83D5084F83C00012070BDA2
:10384000022070BD2168CA6822F04002CA60216867
:10385000CA6822F48042CA6084F83D5084F83C0073
:10386000002070BD704790F88010012918D0012108
:1038700080F880102421C0F8841050F8641B0A6876
:103880000B6823F001030B6022F00051002202605C
:1038900050F8643C1960202101620277104670479D
:1038A0000220704710B50446D0F88800202820D1A7
:1038B00081B17AB194F8800001281AD0012084F8EF
:1038C0008000E066204602F049FA002803D1E16E4C
:1038D000012901D0012010BD226810211162226847
:1038E00052E8001F41F0100142E80013002BF6D10E
:1038F00010BD022010BD00002DE9F04FBC4A89B078
:1039000090427DD1BB4C02292278607804D00329F3
:103910002DD00522B8A15BE1612A15D13F2870D1D5
:10392000B748006C02F0ECFE41EC100BB5A153EC73
:10393000102BB748FCF744FDB548FCF7DCFD82B21C
:10394000B349AB4800F0EAFB20786228E7D1607801
:103950003F28E4D1AA48406C02F0D2FE41EC100BA3
:10396000ACA153EC102BAA48FCF72AFD2BE1612AED
:1039700038D1A0496128D2D188783F28CFD1A1F190
:103980005000006902F0BCFE82469A488B465038CF
:10399000C06802F0B5FE8046964889465038806877
:1039A00002F0AEFE064693480F465038406802F0DB
:1039B000A7FE04468F480D465038006802F0A0FE6E
:1039C0008DE8F00F41EC100B95A153EC102B9048B3
:1039D000FCF7F6FC8E48FCF78EFD82B28C498448D9
:1039E00000F09CFB8348007862283CD181484178F4
:1039F000622994D180783F2891D17E48283801E00F
:103A0000F2E0E8E0006902F07BFE824679488B46EE
:103A10002838C06802F074FE804676488946283807
:103A2000806802F06DFE064672480F4628384068EE
:103A300002F066FE04466F480D462838006802F022
:103A40005FFE8DE8F00F41EC100B75A153EC102BCD
:103A50006F48FCF7B5FC6E48FCF74DFD82B26C492F
:103A6000634800F05BFB63480178712986D1407898
:103A7000612858D15F4880783F28BAD100205D4A3C
:103A800001463C3A01E000210EE002EB810393EC99
:103A9000020AB4EEE00AF1EE10FA03DDC3ED000A0B
:103AA00083ED010A491CC9B2C0F104038B42ECDC6E
:103AB000401CC0B20528E6D34E483C38006902F0ED
:103AC0001FFE82464B488B463C38C06802F018FE09
:103AD0008046484889463C38806802F011FE064618
:103AE00044480F463C38406802F00AFE044641480C
:103AF0000D463C38006802F003FE8DE8F00F41EC03
:103B0000100B47A153EC102B4148FCF759FC4048DF
:103B1000FCF7F1FC82B23E49354800F0FFFA354827
:103B20000078712857D133484178622953D1807881
:103B30003F2850D100202F4B0146143B01E00021CB
:103B40000EE003EB810292EC020AB4EEE00AF1EE21
:103B500010FA03DDC2ED000A82ED010A491CC9B268
:103B6000C0F104028A42ECDC401CC0B20528E6D356
:103B700020481438006902F0C3FD82461D488B4678
:103B80001438C06802F0BCFD80461A4889461438D3
:103B9000806802F0B5FD064616480F4614384068A6
:103BA00002F0AEFD044613480D461438006802F0DA
:103BB000A7FD8DE8F00F41EC100B19A153EC102B71
:103BC0001348FCF7FDFB1248FCF795FC104982B244
:103BD000074800F0A3FA0A480649C28909B0044818
:103BE000BDE8F04FFFF75EBE09B0BDE8F08F000002
:103BF000B8090020E40000206572726F720D0A009F
:103C000000000020613A252E31660D0A00000000F8
:103C1000CC040020623A252E31660D0A0000000017
:103C2000252E31662D252E31662D252E31662D252A
:103C30002E31662D252E31660D0A0000704770B5B5
:103C4000044690F8800001281DD0012084F88000EF
:103C50002420C4F8840020680568026822F001026C
:103C600002602068826822F060620A438260204617
:103C700001F0C0FD206805602020C4F88400002009
:103C800084F8800070BD022070BD70B5044690F8C5
:103C9000800001281DD0012084F880002420C4F871
:103CA000840020680568026822F001020260206832
:103CB000826822F060420A438260204601F09AFD49
:103CC000206805602020C4F88400002084F880006B
:103CD00070BD022070BD7047704770472DE9F041FC
:103CE00003680446D86919689A6840F60F052842A7
:103CF0004FF0000509D186067ED501F0200602F0BE
:103D000080573E4378D0216F27E1A94EA94F164036
:103D10000F40374370D0C70709D0CF0507D501271B
:103D20001F62D4F88C3043F00103C4F88C30830751
:103D30000AD5D30708D0276802233B62D4F88C3019
:103D400043F00403C4F88C3043070AD5D30708D0E6
:103D5000276804233B62D4F88C3043F00203C4F894
:103D60008C3003070CD501F02003334308D02668BC
:103D700008233362D4F88C3043F00803C4F88C3045
:103D800003050BD54B0109D526684FF40063336258
:103D9000D4F88C3043F02003C4F88C30D4F88C3045
:103DA000002B3AD0800609D501F0200002F08051A6
:103DB000084303D0216F09B120468847D4F88C000E
:103DC00021688968490602D410F0280F27D02046C0
:103DD00001F048FE2068806840061BD52068083046
:103DE00050E8001F21F0400140E80012002AF5D100
:103DF000E06F78B1704900E017E08163E06FFEF793
:103E00000CF8002809D0E06F816B00E02046BDE887
:103E1000F04108472046FFF760FFBDE8F0812046EB
:103E2000FFF75BFFC4F88C50F7E7E76E2026012F01
:103E30007ED1C7067CD5CF067AD5102018622068BF
:103E40008068400642D5E16F086840680004000CB5
:103E5000E3D0B4F85C208242DFD9A4F85E000868A1
:103E6000006880062BD4206850E8001F21F4807180
:103E700040E80012002AF6D12068083050E8001F00
:103E800021F0010140E80012002AF5D12068083035
:103E900050E8001F21F0400140E80012002AF5D14F
:103EA000C4F88860E566216851E8000F20F0100032
:103EB00041E80002002AF6D1E06FFDF779FFB4F87F
:103EC0005C00B4F85E10401A81B22CE0B4F85C00DB
:103ED000B4F85E10401A81B2B4F85E0000289CD09D
:103EE00000299AD0226852E8000F20F4907042E82E
:103EF0000003002BF6D12E4BDB432068083050E83E
:103F0000002F1A4040E80027002FF6D1C4F888603F
:103F1000E5662567226852E8000F20F0100042E8AD
:103F20000003002BF6D12046FFF7E6FC75E7FFE71C
:103F3000C70209D5570207D54FF4801018622046F2
:103F4000BDE8F041FFF7C8BE03060AD501F08003C3
:103F500002F40002134304D0616F00297FF456AFCE
:103F60005BE7420611D54A060FD52046016851E8A5
:103F7000002F22F0400241E80023002BF6D1C0F8C8
:103F80008460456700F020F947E7020206D54A0041
:103F900004D52046BDE8F041FFF79DBEC001C5D560
:103FA0000029C3DA2046BDE8F041FFF747BE000014
:103FB00001000010200100046159000810B5040040
:103FC00003D0D4F8840010B107E0012010BD002018
:103FD00084F88000204600F027F82420C4F88400EC
:103FE0002068016821F001010160204601F07CFD9C
:103FF0000128EBD0A06A10B1204601F01DFC20681A
:10400000416821F4904141602068816821F02A01D3
:1040100081602068016841F0010101602046BDE82F
:10402000104001F06DBC0000F0B597B006461421B9
:1040300011A8FCF77FFA44216846FCF77BFA324965
:10404000306888425DD101200024CDE90004684633
:10405000FEF760FA08B1FDF7E5FA2C48016E41F46D
:1040600080410166016E01F480411691C16C41F0FE
:104070000101C164C06C11A900F0010016904FF459
:10408000C06011900220CDE912040720CDE9144050
:104090004FF09040FEF712F81E4D1D488027286013
:1040A0001820C5E90104C5E903476C61AC61EC6106
:1040B00028462C62FDF74AFF08B1FDF7B3FAF56711
:1040C000AE62144D124860351430286019206860C3
:1040D00005F10801102081E891006C61AC61EC6190
:1040E00028462C62FDF732FF08B1FDF79BFAB56751
:1040F000002211462520AE62FEF774F92520FEF756
:1041000063F917B0F0BD0000003801400010024014
:1041100008000240480A002070477047D0F88430F9
:10412000202B47D169B362B390F88030012B41D086
:10413000012380F880300165A0F85420A0F85620B3
:1041400000214167C0F88C102122C0F88420436E02
:104150004FF48052B3F1005F836814D0934201D1D1
:1041600002692AB3144A426780F88010026852E854
:10417000001F41F0800142E80013002BF6D100201F
:10418000704701207047934201D1026972B10B4A16
:10419000426780F880100168083151E8002F42F42E
:1041A000000241E80023002BF5D1E8E7044AEFE7DD
:1041B000044AD8E702207047BF5E00080D5F000880
:1041C000555E0008015E00087047FEE72DE9F041EA
:1041D000404CDFF804810125607A0227002620B1D7
:1041E000012807D0022817D10FE001214046FEF731
:1041F00089F828B101214046FEF784F810B10AE0A1
:10420000657209E06772657106E001214046FEF7BC
:1042100079F8012800D16672A07A20B1012807D070
:10422000022817D10FE002214046FEF76BF828B1B3
:1042300002214046FEF766F810B10AE0A57209E0D7
:10424000A772A57106E002214046FEF75BF801283F
:1042500000D1A672E07A20B1012807D0022817D138
:104260000FE004214046FEF74DF828B104214046F6
:10427000FEF748F810B10AE0E57209E0E772E5716F
:1042800006E004214046FEF73DF8012800D1E67221
:10429000207B4FF0904858B101280ED0022805D15C
:1042A00001214046FEF72EF801280BD0BDE8F08131
:1042B00001214046FEF726F830B101214046FEF7C5
:1042C00021F818B12673F1E72573EFE727732572FC
:1042D000ECE70000000000200004004870B5274C07
:1042E00000256079012804D1607880F001006070B9
:1042F0006571A07901281ED1607801281BD194ED49
:10430000040AF2EE040A1E4930EE200A10EE100AEA
:1043100084ED040A884201DDC4ED040A94ED050A27
:1043200030EE200A10EE100A84ED050A884201DD05
:10433000C4ED050AA571E079012812D16078012841
:104340000FD194ED060ADFED0F0A0F4930EE200A77
:1043500010EE100A84ED060A884201DDC4ED060A5B
:10436000E571207A012808D160782179084304D1C9
:104370000120207100F01CFE257270BD000000209D
:104380000000704200007A4400401C4600B585B031
:1043900014216846FCF7CEF84FF6FF70009000201D
:1043A0000321CDE90201019069460248FDF786FE2E
:1043B00005B000BD0008004800B585B0142168466E
:1043C000FCF7B8F84FF6FF70009001200190032031
:1043D00003900020029069460248FDF76FFE05B089
:1043E00000BD00000008004870B5002406462146C4
:1043F000204600F003F900F05FFA4FF4963530469E
:1044000000F02EFA641CAC42F9D370BD30B587B011
:1044100014216846FCF78EF81E48C16C41F0040177
:10442000C164C16C01F004010591C16C41F001014E
:10443000C164C16C01F001010591C16C41F0020140
:10444000C164C06C012500F0020005904FF4487073
:10445000CDE9000500240394694602940E48FDF757
:104460002DFE280203940090CDE901544FF09044B2
:1044700069462046FDF722FEFFF79EFFA06940F443
:104480008070A06104481830016841F4087101602F
:1044900007B030BD0010024000040048203AD2B2FC
:1044A000034B02EB420203EB021200F019B80000CA
:1044B0003A680008F0B50E460746002540F23F1462
:1044C00007E021463846FFF7E9FF103C6D1CA4B217
:1044D000761C3278002A01D0142DF2D3F0BD0000F2
:1044E0002DE9F04791468A460026044600F086F8FA
:1044F000DFF84080012700BF00F0DEF95FF0000523
:1045000039F8160007FA05F10842404601D1408803
:1045100000E0008800F0A4F96D1C102DF0D3641C9D
:10452000E4B25146204600F069F8761C182EE3D319
:10453000BDE8F0876C00002010B5FFF767FF002092
:1045400000F014F8084CA080A088A0F50241303992
:1045500006D000F07AFE002000F008F8A08010BD20
:1045600000F0EAFDF7E700006C00002070B51D497F
:104570000A6842F400720A600A6842F480720A60B3
:10458000184C103C226842F020022260164A10604B
:10459000086840F02000086000BF00BF00BF20682E
:1045A00040F020002060206840F480702060FFF719
:1045B000EDFE4FF09041886A40F48070886200BF41
:1045C00000BF00BF0848001F006885B2886940F43A
:1045D00080708861FFF7F0FE206840F40070206072
:1045E000284670BD280400481408004801B5BDF8ED
:1045F00000000149488008BD6C00002010B50C4641
:104600000146202000F086F92146BDE81040212017
:1046100000F080B901B5BDF800000149088008BD6F
:104620006C00002010B5514C6078002844D001285F
:104630007DD14FA11820FFF73DFF206902F060F8FF
:1046400041EC100B4FA153EC102B5348FBF7B8FE75
:1046500051493020FFF72EFF606902F051F841EC1C
:10466000100B4EA153EC102B4B48FBF7A9FE4A4907
:104670004820FFF71FFFA06902F042F841EC100B41
:104680004BA153EC102B4448FBF79AFE42496020A3
:10469000FFF710FF4BA17820FFF70CFF49A19020F6
:1046A000FFF708FF47A1A820FFF704FF45A1BDE8D9
:1046B0001040C020FFF7FEBE47A11820FFF7FAFE0A
:1046C000206C02F01DF841EC100B48A153EC102BAC
:1046D0003148FBF775FE30493020FFF7EBFE606C88
:1046E00002F00EF841EC100B44A153EC102B2A48B9
:1046F000FBF766FE28494820FFF7DCFEA06C01F0BE
:10470000FFFF41EC100B41A153EC102B2248FBF7AB
:1047100057FE21496020FFF7CDFEE06C01F0F0FF6D
:1047200041EC100B3EA153EC102B1B4800E01CE0A9
:10473000FBF746FE18499020FFF7BCFE206D01F004
:10474000DFFF41EC100B3BA153EC102B1248FBF7A1
:1047500037FE1149A820FFF7ADFE207918B10128D6
:1047600003D139A1A3E73BA1A1E710BD00000020C0
:104770002020202020202020504152412020202095
:10478000202000002020207061783A252E306620FD
:104790002020202020000000740000202020207015
:1047A00062783A252E30662020202020200000004C
:1047B00020202070663A252E3066202020202020E0
:1047C0002000000020202020202020202020202049
:1047D0002020202020000000202020202020202039
:1047E000444154412020202020200000202020612E
:1047F0003A252E3166202020202020002020206213
:104800003A252E31662020202020200020202066FE
:104810003A252E3066487A202020202020000000F3
:1048200020202061783A252E30662020202020206C
:104830000000000020202062783A252E30662020DB
:1048400020202020000000002020206D6F64653AA9
:10485000420000002020206D6F64653A4100000096
:10486000134A116841F400711160114910390B6845
:1048700043F480730B600B6843F020030B600D4B17
:104880001860106840F02000106000BF00BF00BF3B
:10489000086840F020000860086840F480700860F4
:1048A00000BF00BF00BF086840F400700860704798
:1048B00028040048140800481449086840F40070AF
:1048C0000860086840F4807008601048103802687A
:1048D00042F0200202600E4B22221A600A6842F067
:1048E00020020A6000BF00BF00BF016841F0200144
:1048F0000160016841F48071016000BF00BF00BF2A
:10490000016841F40071016070470000280400480C
:1049100014080048184B10B51A6842F400721A6067
:104920001A6842F480721A60134A103A146844F00C
:1049300020041460114C2060186840F020001860BA
:1049400000BF00BF00BF106840F02000106010687A
:1049500040F4807010602160186840F020001860FA
:1049600000BF00BF00BF106840F02000106010685A
:1049700040F48070106010BD2804004814080048FE
:1049800010B501224FF47F410748FDF7C0FC074CEA
:10499000012204212046FDF7BAFC20460022BDE892
:1049A00010400421FDF7B3BC00080048000C00488B
:1049B00010B5284C4FF0010094ED100AD4ED040A14
:1049C000B4EEE00AF1EE10FA02DD00F06BF801E05F
:1049D00000F044F894ED110AD4ED050A4FF00200FE
:1049E000B4EEE00AF1EE10FA02DD00F05BF801E04F
:1049F00000F034F894ED120AD4ED060A4FF00300EB
:104A0000B4EEE00AF1EE10FA02DD00F04BF801E03E
:104A100000F024F8207900284FF0040013D000F0B3
:104A20001DF800BF94ED100AD4ED110A0A4930EECA
:104A3000600A10EE100A88424FF0050006DDBDE85E
:104A4000104000F02FB800F02DF8EBE7BDE8104063
:104A500000F004B8000000200000A042431E4FF404
:104A6000807202FA03F1C0F11100C2400A4810B589
:104A700011430288114389B2018008480160084C43
:104A8000012204212046FDF742FC20460022BDE819
:104A900010400421FDF73BBC7200002014080048C0
:104AA000000C0048431E4FF6FF6202FA03F1C0F10A
:104AB0001100C2400A4810B511430288114001801C
:104AC00008480160084C012204212046FDF71FFC24
:104AD00020460022BDE810400421FDF718BC00006C
:104AE0007200002014080048000C004800EB810010
:104AF000006E00F0F84070478068C0F3C000704757
:104B00008068C0F380007047042303EAD15310B5D6
:104B100018444369C1F3045107248C40A3438A40DD
:104B20001343436110BD00EB8100016E21F0004191
:104B3000114301667047000030B589B020216846F6
:104B4000FBF7F8FC19481849002401604902C0E944
:104B50000114C46004250461C0E905450477447765
:104B60000121016280F82440C462046380F8384067
:104B7000C46380F84040FCF767FF08B1FCF752FDC2
:104B80000B4800900620CDE901047F200594CDE973
:104B9000030569460548FCF747FD002801D0FCF7EE
:104BA00041FD09B030BD000000010050B4080020F4
:104BB00000005247114808B5816C41F0040181643E
:104BC000816C01F004010091816C41F0010181646C
:104BD000806C002200F00100009011460B20FDF7D0
:104BE00001FC0B20FDF7F0FB002211460C20FDF725
:104BF000F9FBBDE808400C20FDF7E6BB00100240C1
:104C0000F0B587B014216846FBF794FC2D48C16CC1
:104C100041F00401C164C16C01F004010591C16C53
:104C200041F02001C164C16C01F020010591C16C0B
:104C300041F00101C164C16C01F001010591C16C39
:104C400041F00201C164C16C01F002010591C16C27
:104C500041F00801C164C06C1B4E00F008004FF425
:104C60007F440590002221463046FDF750FB174F48
:104C7000002204213846FDF74AFB0125CDE9004515
:104C800000240294694630460394FDF717FACDE9F3
:104C9000005469464FF090400294FDF70FFA072048
:104CA000CDE9000469460A480294FDF707FA04209A
:104CB0000090CDE90154694638460394FDF7FEF9AA
:104CC00007B0F0BD0010024000080048000C00488A
:104CD0000004004810B590B0002409940A940B9485
:104CE000142104A80C94FBF725FC2C480D940F9478
:104CF0000E940094019402944FF08041039401605B
:104D00004F21C0E90114611EC0E9031480218161B3
:104D1000FEF7FDF808B1FCF785FC4FF480500990D0
:104D200009A91E48FEF7D4F908B1FCF77BFC1B4823
:104D3000FEF74DFB08B1FCF775FC042004906020E1
:104D4000CDE9050404A915480894FEF760FD08B1F3
:104D5000FCF768FC0D940DA910480F94FEF788F835
:104D600008B1FCF75FFC0220CDE90040029400226C
:104D700069460A480394FEF79BFA08B1FCF752FC17
:104D800001200190042269460448FEF791FA0028A8
:104D900001D0FCF747FC10B010BD00002009002036
:104DA00010B590B0002409940A940B94142104A81F
:104DB0000C94FBF7BFFB2D480D940F940E940094B8
:104DC000019402942849039401604F21C0E9011421
:104DD0004FF6FF71C0E903148461FEF798F808B13B
:104DE000FCF720FC4FF48050099009A91F48FEF7FA
:104DF0006FF908B1FCF716FC1C48FEF7E8FA08B199
:104E0000FCF710FC042004905020CDE9050404A90F
:104E100016480894FEF7FBFC08B1FCF703FC0D9460
:104E20000DA912480F94FEF723F808B1FCF7FAFB1E
:104E30000120CDE900400294002269460B4803940A
:104E4000FEF736FA08B1FCF7EDFB02200090019066
:104E5000042269460548FEF72BFA002801D0FCF72A
:104E6000E1FB10B010BD0000000400406C09002000
:104E700010B590B0002409940A940B94142104A84E
:104E80000C94FBF757FB2D480D940F940E9400944F
:104E9000019402942849039401604F21C0E9011450
:104EA0004FF6FF71C0E9031480218161FEF72FF8EE
:104EB00008B1FCF7B7FB4FF48050099009A91F48CF
:104EC000FEF706F908B1FCF7ADFB1C48FEF77FFAC8
:104ED00008B1FCF7A7FB042004906020CDE905048D
:104EE00004A916480894FEF792FC08B1FCF79AFB57
:104EF0000D940DA911480F94FDF7BAFF08B1FCF706
:104F000091FB02200090CDE90104002269460B4884
:104F10000394FEF7CDF908B1FCF784FB0120CDE93D
:104F20000040042269460548FEF7C2F9002801D076
:104F3000FCF778FB10B010BD000400406C090020A5
:104F4000184810B5164901604FF416514160002110
:104F500081600C22C160C0E904128161C1610162FB
:104F600041628162FFF72AF808B1FCF75BFB002180
:104F70000C48FEF78AFE08B1FCF754FB00210948F3
:104F8000FEF75DFE08B1FCF74DFB0648FEF76BFC33
:104F9000002803D0BDE81040FCF744BB10BD000062
:104FA00000380140B8090020FEE7FEE77047000026
:104FB00070B52DED028BFFF7F3FE514C002001463A
:104FC00020705048FEF736FA04214E48FEF732FAB8
:104FD0004C48FEF733F81420FDF75EF800214948ED
:104FE000FEF7BEFA04214748FEF7BAFA4548FEF735
:104FF0005BF894ED070A444D10EE100A9FED438ACA
:10500000434EA84202DA84ED108A10E010EE100A36
:10501000B04204DD9FED3F0A84ED100A07E09FEDEA
:105020003E1ADFED3E0A50EE010AC4ED100A94ED7F
:10503000100A3B4801F06AF8394894ED100A143020
:1050400001F064F894ED100AD4ED150A70EE600AD0
:10505000C4ED130A84ED150AFFF70AFF0120207042
:1050600000212848FEF7E6F904212648FEF7E2F978
:105070002448FDF7E3FF1420FDF70EF80021214836
:10508000FEF76EFA04211F48FEF76AFA1D48FEF784
:105090000BF8A06AA84202DA84ED118A17E0B04248
:1050A00004DD9FED200A84ED110A10E001F028FBD9
:1050B0009FED1D1B53EC112B01F03AF99FED1C1BCA
:1050C00053EC112B01F032FA01F044F860641448FB
:1050D00094ED110A283001F019F8114894ED110AE5
:1050E0003C3001F013F894ED110AD4ED160A70EE7D
:1050F000600AC4ED140A84ED160ABDEC028B70BD83
:10510000000000206C090020CDCCCC3D0000000048
:105110006666663F00003443000061430000B4410E
:10512000940000200000B4420000000000205C4019
:10513000000000000080264030B501210020FFF76C
:10514000E9FB4FF47A70FCF75FFA00210120FFF7CA
:10515000E1FB41F290711020FFF7DCFB4FF41C5192
:105160006020FFF7D7FB01216120FFF7D3FB02216D
:105170004620FFF7CFFB48F210011320FFF7CAFBD0
:1051800048F2FE011220FFF7C5FB4FF4A061022098
:10519000FFF7C0FB41F230010320FFF7BBFB40F2F9
:1051A000033421463020FFF7B5FB21463120FFF7BD
:1051B000B1FB21463220FFF7ADFBE51E2946332027
:1051C000FFF7A8FB03213420FFF7A4FB214635207D
:1051D000FFF7A0FB14213620FFF79CFB2146372068
:1051E000FFF798FB21463820FFF794FB2146392032
:1051F000FFF790FB29463A20FFF78CFB03213B2069
:10520000FFF788FB21463C20FFF784FB4FF4A051B9
:105210003D20FFF77FFB4FF400719220FFF77AFBF0
:1052200021469320FFF776FB40F60D019020FFF713
:1052300071FB41F218010320FFF76CFBBDE8304021
:1052400040F273110720FFF765BB10B543F2080168
:10525000E320FFF75FFB1221E720FFF75BFB41F242
:105260003121EF20FFF756FB00210120FFF752FB11
:105270004FF4E0610220FFF74DFB41F230010320C3
:10528000FFF748FB00210420FFF744FB40F2072111
:105290000820FFF73FFB00210920FFF73BFB00211F
:1052A0000A20FFF737FB00210C20FFF733FB00211A
:1052B0000D20FFF72FFB00210F20FFF72BFB002114
:1052C0001020FFF727FB07211120FFF723FB002108
:1052D0001220FFF71FFB00211320FFF71BFBC82044
:1052E000FCF7DAFE41F290611020FFF713FB40F269
:1052F00027211120FFF70EFB3220FCF7CDFE1D21E8
:105300001220FFF707FB3220FCF7C6FE4FF40061C6
:105310001320FFF7FFFA14212920FFF7FBFA0B21D6
:105320002B20FFF7F7FA3220FCF7B6FE00212020F1
:10533000FFF7F0FA00212120FFF7ECFA07213020D7
:10534000FFF7E8FA40F207713120FFF7E3FA062190
:105350003220FFF7DFFA40F204713520FFF7DAFA66
:1053600041F604713620FFF7D5FA04213720FFF704
:10537000D1FA00213820FFF7CDFA40F2067139202A
:10538000FFF7C8FA40F201713C20FFF7C3FA0F2182
:105390003D20FFF7BFFA00215020FFF7BBFAEF21B5
:1053A0005120FFF7B7FA00215220FFF7B3FA40F27D
:1053B0003F115320FFF7AEFA4FF41C516020FFF766
:1053C000A9FA01216120FFF7A5FA00216A20FFF761
:1053D000A1FA00218020FFF79DFA00218120FFF72C
:1053E00099FA00218220FFF795FA00218320FFF728
:1053F00091FA00218420FFF78DFA00218520FFF724
:1054000089FA10219020FFF785FA00219220FFF7FA
:1054100081FA03219320FFF77DFA4FF488719520DC
:10542000FFF778FA00219720FFF774FA00219820FF
:10543000FFF770FA41F218010320FFF76BFABDE89D
:10544000104040F273110720FFF764BA7047FCF771
:1054500069BF000010B5FFF76FF80020FEF7C4FF2A
:105460000020FFF7C3F84FF6FF70FFF7D3F80021D5
:105470000B48FDF7DFFF04210948FDF7DBFF084873
:10548000FDF7DCFD0748FCF7DFFAFFF779FA06487D
:105490000649C289BDE810400548FEF703BA00007E
:1054A00020090020B408002000000020E4000020B3
:1054B000B809002010B594B038216846FBF73AF8D7
:1054C00014210EA8FBF736F84FF40070FCF7BCFF70
:1054D000012000900004019002200324CDE907047C
:1054E0001421CDE90A100C900D9009946846FDF73F
:1054F0009FFA08B172B6FEE70F20CDE90E04002036
:1055000010901190129002210EA8FDF747F9002883
:1055100001D072B6FEE714B010BD00000248016869
:1055200041F470010160704788ED00E00148FEF72A
:105530006DB80000200900200148FEF767B80000A0
:105540006C0900202DE9F0430268234B234D244EC3
:10555000244C4FF08049984207D0484505D0A842D6
:1055600003D0B04201D0A04203D122F070074A68B4
:105570003A431D4FDFF874C0DFF8748098420DD0B5
:1055800048450BD0A84209D0B04207D0A04205D070
:10559000B84203D0604501D0404503D122F44075A4
:1055A000CA682A434D6922F080022A4302608A6851
:1055B000C2620A688262984207D0A04205D0B8420F
:1055C00003D0604501D0404501D109690163012143
:1055D0004161BDE8F0830000002C01400004004060
:1055E00000080040003401400040014000440140F8
:1055F0000048014010B501F01F030121046A9940E1
:105600008C430462016A9A401143016210BD10B5D7
:10561000846842EA032224F47F440A4322438260DE
:1056200010BD00008268034B1A400A4342F0070194
:10563000816070478FFFCFFF70B505680024AA68AE
:105640002E4B1A404B6813432D4A13400A681A43E5
:10565000AA604A68602A4AD00DDC302A1FD005DCD7
:10566000EAB1102A1BD0202A18D118E0402A1FD0F6
:10567000502A13D135E0234D531BAA420FD009DC29
:10568000702A0ED0B2F1101F09D0203AB2F5801F57
:1056900004D104E0102B02D0402B00D0012420467E
:1056A00070BD0B69D1E902210068FFF7B0FFF6E792
:1056B0000A68052A13D0B2F1011F10D00268136ADC
:1056C000156A25F00105156202689569096925F0DA
:1056D000F00545EA0111916100680362DFE70120EE
:1056E00070BD0A698968006800F00EF8D7E70A699A
:1056F0008968006800F050F8D1E700008FFFCFFF05
:10570000F8FFFEFF3000100010B5036A046A24F0B1
:1057100001040462846924F0F00444EA021423F0D2
:105720000A020A438461026210BD000070B5046A77
:1057300024F0010404628469056A124EB0420ED05E
:10574000B0F1804F0BD0104EB04208D00F4EB04297
:1057500005D00F4EB04202D00E4EB04203D124F01D
:105760000304144301E044F001041A0724F0F00498
:1057700044EA126225F00A0301F00A01194382612A
:10578000016270BD002C0140000400400008004090
:10579000003401400040014010B5036A23F01003BB
:1057A00003628369046A23F4704343EA023224F0FB
:1057B000A00343EA01118261016210BD30B5046AA1
:1057C00024F0100404628469056A24F4407444EAF5
:1057D000022222F470444FF6FF7202EA033222439F
:1057E000A02425F0A00304EA01111943826101629B
:1057F00030BD000030B5416EB9B102689168926861
:10580000C1F342610B4B520F9C5CE50003F10804AD
:10581000A25CB5FBF2F2A0F86A205A5C615CD2008F
:10582000B2FBF1F1A0F8681030BD0121A0F86A10B8
:10583000F8E700001268000890F82810C90706D0A1
:1058400001684A68C36A22F400321A434A6090F839
:105850002810890706D501684A68036B22F4803254
:105860001A434A6090F82810490706D501684A682B
:10587000436B22F480221A434A6090F828100907EB
:1058800006D501684A68836B22F400421A434A60D5
:1058900090F82810C90606D501688A68C36B22F4FF
:1058A00080521A438A6090F82810890606D501684C
:1058B0008A68036C22F400521A438A6090F8281018
:1058C000490611D501684A68436C22F480121A43D4
:1058D0004A60416CB1F5801F06D101684A68836C4B
:1058E00022F4C0021A434A6090F82810090606D52F
:1058F00001684A68C06C22F4002202434A60704783
:10590000F8B500260446C0F88C60FCF705FD054696
:10591000206800686FF07E47000708D52B460022FC
:105920004FF400112046009700F023FB60B9206877
:10593000006840070AD52B4600224FF4800120461C
:10594000009700F016FB08B10320F8BD2020C4F832
:105950008400C4F8880044F86C6F00202675F8BDF8
:1059600010B5806A0021A0F85E10A0F85610FEF76E
:10597000B4F910BD70B5846AD4F88400D4F88850A6
:10598000216889684FF00006090606D5212804D150
:10599000A4F85660204600F08FF820688068400622
:1059A00006D5222D04D1A4F85E60204600F05AF8F6
:1059B000D4F88C0040F01000C4F88C002046FEF7AC
:1059C0008CF970BD10B50146806A096809688906BE
:1059D0002ED40021A0F85E10016851E8002F22F4B7
:1059E000807241E80023002BF6D10168083151E8AC
:1059F000002F22F0010241E80023002BF5D10168BD
:105A0000083151E8002F22F0400241E80023002B2A
:105A1000F5D12021C0F88810C16E012908D1026893
:105A200052E8001F21F0100142E80013002BF6D1CC
:105A3000C16E012902D0FEF76FFB10BDB0F85C10FB
:105A4000FDF75AFF10BD10B5806AC16E012902D062
:105A5000FEF763FB10BDB0F85C104908FDF74CFF82
:105A600010BD000010B5026852E8001F21F49071CB
:105A700042E80013002BF6D10E4B0268083252E8C0
:105A8000001F194042E80014002CF6D1C16E012914
:105A900008D1016851E8002F22F0100241E80023EC
:105AA000002BF6D12021C0F888100021C1660167C3
:105AB00010BD0000FEFFFFEF026852E8001F21F05A
:105AC000C00142E80013002BF6D10168083151E80B
:105AD000002F22F4000241E80023002BF5D1202101
